{
  "contractName": "First",
  "abi": [
    {
      "inputs": [],
      "name": "counter",
      "outputs": [
        {
          "internalType": "uint256",
          "name": "",
          "type": "uint256"
        }
      ],
      "stateMutability": "view",
      "type": "function"
    },
    {
      "inputs": [
        {
          "internalType": "uint256",
          "name": "num",
          "type": "uint256"
        }
      ],
      "name": "plus",
      "outputs": [],
      "stateMutability": "nonpayable",
      "type": "function"
    },
    {
      "inputs": [],
      "name": "reset",
      "outputs": [],
      "stateMutability": "nonpayable",
      "type": "function"
    }
  ],
  "bytecode": "0x608060405234801561001057600080fd5b5060fe8061001f6000396000f3fe6080604052348015600f57600080fd5b5060043610603c5760003560e01c806361bc221a1460415780639527008014605b578063d826f88f14606c575b600080fd5b604960005481565b60405190815260200160405180910390f35b606a6066366004608b565b6074565b005b606a60008055565b806000808282546083919060a3565b909155505050565b600060208284031215609c57600080fd5b5035919050565b6000821982111560c357634e487b7160e01b600052601160045260246000fd5b50019056fea264697066735822122052b8f98963400ddcd7830f258cb04bd1bf969d1e0e7281e845b953bd257a0fab64736f6c634300080e0033",
  "immutableReferences": {},
  "source": "// SPDX-License-Identifier: MIT\npragma solidity >=0.4.22 <0.9.0;\n\ncontract First {\n  uint public counter;\n\n  function plus(uint num) public {\n    counter += num;\n  }\n\n  function reset() public {\n    counter = 0;\n  }\n}\n",
  "sourcePath": "/home/tetsu/src/bcg-try/contracts/first.sol",
  "compiler": {
    "name": "solc",
    "version": "0.8.14+commit.80d49f37.Emscripten.clang"
  },
  "schemaVersion": "3.4.7",
  "updatedAt": "2022-06-08T04:57:37.739Z",
  "devdoc": {
    "kind": "dev",
    "methods": {},
    "version": 1
  },
  "userdoc": {
    "kind": "user",
    "methods": {},
    "version": 1
  }
}